:0A00000013C0FECFFDCFFCCFFBCFF5
:10000A00FACFF9CFF8CFF7CFF6CFF5CFF4CFF3CFBA
:10001A00F2CF35C0F0CFEFCFEECFEDCF0000F8949E
:10002A00EE27ECBBF1E0FBBFEBBFE5BFF8E1F1BDAA
:10003A00F0E1F1BD8DE0A2E0BB27ED938A95E9F7E7
:10004A0080E094E0A0E6ED930197E9F7E6E2F0E0BC
:10005A0005901590BF01F001309751F0A591B59127
:10006A008591959105900D920197E1F7FB01F0CFEB
:10007A00EFE5EDBFE4E0EEBFC0E6D1E032C011D259
:10008A0089D300E010E004B115B10024001601067E
:10009A00F0F4E02FF12FDF01CB018827992773D2E3
:1000AA00E0E0F0E060EA70E402D3DF01CB01E0E0D7
:1000BA00F0EC6FE774E42DD3A0E0B0E088EC92E4B2
:1000CA00F6D294D24E2E5F2E5A924A9204C0EE274E
:1000DA00FF27FA93EA938FD0B8D1369A5ED3EFD13D
:1000EA001895EFEFE1BBE7BBB0D1EEECE6B9789437
:1000FA00A42DB52DE8EFF0E00AD2EF93A62DB72D87
:10010A00EE27FF27FED1AF91EA2309F072C0EFEC88
:10011A00F0E0E415F505A4F1E62DF72D319698D116
:10012A0019F49ED1E1E02BC0E230A0E0FA0719F4FD
:10013A0097D1E2E024C0E330A0E0FA0719F490D1A5
:10014A00E3E01DC0E430A0E0FA0719F489D1E4E045
:10015A0016C0E530A0E0FA0719F482D1E5E00FC035
:10016A00E630A0E0FA0719F47BD1E6E008C0E730F0
:10017A00A0E0FA0701F4E4E6F0E077D1E7E0E8BBB3
:10018A00E9EEF0E04E165F06A4F1E62DF72D319761
:10019A005FD119F465D1E1E02BC0E230A0E0FA07A3
:1001AA0019F45ED1E2E024C0E330A0E0FA0719F4C2
:1001BA0057D1E3E01DC0E430A0E0FA0719F450D1AA
:1001CA00E4E016C0E530A0E0FA0719F449D1E5E009
:1001DA000FC0E630A0E0FA0719F442D1E6E008C001
:1001EA00E730A0E0FA0719F43BD1E7E001C0EE27B7
:1001FA00E8BB7ECFFFCF88249924E5E0F0E08E1695
:10020A009F060CF020C1289733D19AD1EE83FF8341
:10021A002FD19BD1EC83FD8330D192D1EA83FB832A
:10022A002CD193D1E883F983AE81BF81A130E0E07C
:10023A00BE0719F4E1E1E2BB4EC0AE81BF81A23034
:10024A00E0E0BE0719F4E2E1E2BB45C0AE81BF813E
:10025A00A330E0E0BE0719F4E3E1E2BB3CC0AE81A3
:10026A00BF81A430E0E0BE0719F4E4E1E2BB33C089
:10027A00AE81BF81A530E0E0BE0719F4E5E1E2BB3B
:10028A002AC0AE81BF81A630E0E0BE0719F4E6E1DC
:10029A00E2BB21C0AE81BF81A730E0E0BE0719F4FE
:1002AA00E7E1E2BB18C0AE81BF81A830E0E0BE073B
:1002BA0019F4E8E1E2BB0FC0AE81BF81A930E0E0EA
:1002CA00BE0719F4E9E1E2BB06C0EE81FF8130976F
:1002DA0011F4E0E1E2BBD6D0AA81BB81A130E0E013
:1002EA00BE0719F4E1E2E2BB4EC0AA81BB81A2308B
:1002FA00E0E0BE0719F4E2E2E2BB45C0AA81BB8195
:10030A00A330E0E0BE0719F4E3E2E2BB3CC0AA81F5
:10031A00BB81A430E0E0BE0719F4E4E2E2BB33C0DB
:10032A00AA81BB81A530E0E0BE0719F4E5E2E2BB91
:10033A002AC0AA81BB81A630E0E0BE0719F4E6E232
:10034A00E2BB21C0AA81BB81A730E0E0BE0719F455
:10035A00E7E2E2BB18C0AA81BB81A830E0E0BE0791
:10036A0019F4E8E2E2BB0FC0AA81BB81A930E0E040
:10037A00BE0719F4E9E2E2BB06C0EA81FB813097C5
:10038A0011F4E0E2E2BB7ED0A881B981A130E0E0BD
:10039A00BE0719F4E1E4E2BB4EC0A881B981A230DC
:1003AA00E0E0BE0719F4E2E4E2BB45C0A881B981E6
:1003BA00A330E0E0BE0719F4E3E4E2BB3CC0A88145
:1003CA00B981A430E0E0BE0719F4E4E4E2BB33C02B
:1003DA00A881B981A530E0E0BE0719F4E5E4E2BBE3
:1003EA002AC0A881B981A630E0E0BE0719F4E6E484
:1003FA00E2BB21C0A881B981A730E0E0BE0719F4A9
:10040A00E7E4E2BB18C0A881B981A830E0E0BE07E2
:10041A0019F4E8E4E2BB0FC0A881B981A930E0E091
:10042A00BE0719F4E9E4E2BB06C0E881F981309716
:10043A0011F4E0E4E2BB26D02896E82DF92D319696
:10044A008E2E9F2EDACE22960895EE27E7B90895CA
:10045A006E2E7F2EE62DF72DE130A0E0FA070895E3
:10046A00E4E6F0E0FA93EA9310C0FA93EA930DC037
:10047A00A885B985E4E6F0E00895AC81BD81EAE09B
:10048A00F0E00895E1E0F0E0F0CFE991F9913096DB
:10049A0039F080ED97E00197F1F7A8953197C9F700
:1004AA0008950A921A92FA926A937A938A939A937D
:1004BA00AA93BA93EA93FA930FB60A920895099007
:1004CA000FBEF991E991B991A9919991899179917F
:1004DA006991F990199009900895E095F0953196EF
:1004EA000895E095F09560957095EF5FFF4F6F4F17
:1004FA007F4F089588279927B7FF08958FEF9FEFB9
:10050A000895EA17FB07E1E009F0EE270895AE1710
:10051A00BF07E1E00CF4EE2708950024112490E1CE
:10052A00AA0FBB1F001C111C0E1A1F0A18F40E0E6C
:10053A001F1E01C0A1609A9599F7FD01D001089587
:10054A0012D0EBDF0EF4C9DF0895E894B7FF04C0B8
:10055A00A095B09511966894F7FDBFDFDEDFFD0127
:10056A000EF4BBDF0895E894F7FF02C0B6DF689483
:10057A00B7FF06C0A095B095119600F8039400FA4B
:10058A000895689401C0E89401D064D0182E862F8B
:10059A00612D192E972F712D1B2EBF2FF12D1A2E7B
:1005AA00AE2FE12D089550E8572711F45F9373C0D9
:1005BA005F3F31F0660F000C57956795752F0895C8
:1005CA005F9300200AF06DC060C050E8192E152212
:1005DA00880F991F9527550F879550E8072E0522F2
:1005EA00660F771F7527550F679508955F93F5DF97
:1005FA00703818F07F3F08F44EC056E1571B92F44A
:10060A005195583028F0EFEFFFEF6FEF7FE71AC0F0
:10061A0077275523B9F0EE0FFF1F661F771F5A95EC
:10062A00D1F710C07727583028F0EF2FF62F672F11
:10063A005850F9CF552331F076956795F795E79598
:10064A005A95D1F700200AF44CDF5F910895689417
:10065A0001C0E894309760407040B1F0002426F061
:10066A00772312F400943DDF172E7EE1112032F039
:10067A007A95EE0FFF1F661F111CF9CFEF2FF62F89
:10068A00612D5F9390DF5F910895EFEFFFEF6FE7C2
:10069A007FEF5F910895EE27FF27662777275F91FF
:1006AA000895EFEFFFEF6FE77FE75F9108955F939C
:1006BA008CDF703881F3903871F301240894791F24
:1006CA0023F44CF300200AF3ECCF3F934F93112409
:1006DA0033274427552798E1330F441F551FEE1F30
:1006EA00FF1F661F30F43A0F4B1F581FE11DF11D03
:1006FA00611D9A9589F74F913F9166232AF0550F0C
:10070A00EE1FFF1F661F02C07395E3F24CDF5F9175
:10071A0008955F935ADF703819F4112012F6B5CF95
:10072A00903809F4B8CF01240894970B1BF4D4F33A
:10073A000020F4CF792F6695F795E7958695B795BA
:10074A00A7954F9311244427552798E1AE17BF0761
:10075A00860728F0AE1BBF0B860B089401C088944D
:10076A00111C441F551FAA1FBB1F881F9A9571F79A
:10077A00E12DF42F652FA695E91FF91F691F4F91E7
:10078A0066232AF0EE0FFF1F661F7A955BF20BDFD6
:10079A005F9108951A930A930895099119910895FA
:00000001FF
